{
  "_format": "hh-sol-artifact-1",
  "contractName": "Election",
  "sourceName": "contracts/Election.sol",
  "abi": [
    {
      "inputs": [
        {
          "internalType": "string",
          "name": "_title",
          "type": "string"
        },
        {
          "internalType": "string",
          "name": "_description",
          "type": "string"
        },
        {
          "internalType": "uint256",
          "name": "_startTime",
          "type": "uint256"
        },
        {
          "internalType": "uint256",
          "name": "_endTime",
          "type": "uint256"
        }
      ],
      "stateMutability": "nonpayable",
      "type": "constructor"
    },
    {
      "anonymous": false,
      "inputs": [
        {
          "indexed": false,
          "internalType": "uint256",
          "name": "candidateId",
          "type": "uint256"
        },
        {
          "indexed": false,
          "internalType": "string",
          "name": "name",
          "type": "string"
        },
        {
          "indexed": false,
          "internalType": "string",
          "name": "party",
          "type": "string"
        }
      ],
      "name": "CandidateAdded",
      "type": "event"
    },
    {
      "anonymous": false,
      "inputs": [
        {
          "indexed": false,
          "internalType": "string",
          "name": "title",
          "type": "string"
        },
        {
          "indexed": false,
          "internalType": "uint256",
          "name": "startTime",
          "type": "uint256"
        },
        {
          "indexed": false,
          "internalType": "uint256",
          "name": "endTime",
          "type": "uint256"
        }
      ],
      "name": "ElectionCreated",
      "type": "event"
    },
    {
      "anonymous": false,
      "inputs": [
        {
          "indexed": false,
          "internalType": "uint256",
          "name": "totalVotes",
          "type": "uint256"
        }
      ],
      "name": "ElectionFinalized",
      "type": "event"
    },
    {
      "anonymous": false,
      "inputs": [
        {
          "indexed": true,
          "internalType": "address",
          "name": "voter",
          "type": "address"
        },
        {
          "indexed": false,
          "internalType": "uint256",
          "name": "candidateId",
          "type": "uint256"
        }
      ],
      "name": "VoteCast",
      "type": "event"
    },
    {
      "inputs": [
        {
          "internalType": "string",
          "name": "_name",
          "type": "string"
        },
        {
          "internalType": "string",
          "name": "_party",
          "type": "string"
        }
      ],
      "name": "addCandidate",
      "outputs": [],
      "stateMutability": "nonpayable",
      "type": "function"
    },
    {
      "inputs": [],
      "name": "admin",
      "outputs": [
        {
          "internalType": "address",
          "name": "",
          "type": "address"
        }
      ],
      "stateMutability": "view",
      "type": "function"
    },
    {
      "inputs": [
        {
          "internalType": "uint256",
          "name": "",
          "type": "uint256"
        }
      ],
      "name": "candidates",
      "outputs": [
        {
          "internalType": "string",
          "name": "name",
          "type": "string"
        },
        {
          "internalType": "string",
          "name": "party",
          "type": "string"
        },
        {
          "internalType": "uint256",
          "name": "voteCount",
          "type": "uint256"
        },
        {
          "internalType": "bool",
          "name": "isActive",
          "type": "bool"
        }
      ],
      "stateMutability": "view",
      "type": "function"
    },
    {
      "inputs": [],
      "name": "election",
      "outputs": [
        {
          "internalType": "string",
          "name": "title",
          "type": "string"
        },
        {
          "internalType": "string",
          "name": "description",
          "type": "string"
        },
        {
          "internalType": "uint256",
          "name": "startTime",
          "type": "uint256"
        },
        {
          "internalType": "uint256",
          "name": "endTime",
          "type": "uint256"
        },
        {
          "internalType": "bool",
          "name": "isActive",
          "type": "bool"
        },
        {
          "internalType": "bool",
          "name": "isFinalized",
          "type": "bool"
        }
      ],
      "stateMutability": "view",
      "type": "function"
    },
    {
      "inputs": [],
      "name": "finalizeElection",
      "outputs": [],
      "stateMutability": "nonpayable",
      "type": "function"
    },
    {
      "inputs": [
        {
          "internalType": "uint256",
          "name": "_candidateId",
          "type": "uint256"
        }
      ],
      "name": "getCandidate",
      "outputs": [
        {
          "internalType": "string",
          "name": "name",
          "type": "string"
        },
        {
          "internalType": "string",
          "name": "party",
          "type": "string"
        },
        {
          "internalType": "uint256",
          "name": "voteCount",
          "type": "uint256"
        },
        {
          "internalType": "bool",
          "name": "isActive",
          "type": "bool"
        }
      ],
      "stateMutability": "view",
      "type": "function"
    },
    {
      "inputs": [],
      "name": "getCandidateCount",
      "outputs": [
        {
          "internalType": "uint256",
          "name": "",
          "type": "uint256"
        }
      ],
      "stateMutability": "view",
      "type": "function"
    },
    {
      "inputs": [],
      "name": "getElectionInfo",
      "outputs": [
        {
          "internalType": "string",
          "name": "title",
          "type": "string"
        },
        {
          "internalType": "string",
          "name": "description",
          "type": "string"
        },
        {
          "internalType": "uint256",
          "name": "startTime",
          "type": "uint256"
        },
        {
          "internalType": "uint256",
          "name": "endTime",
          "type": "uint256"
        },
        {
          "internalType": "bool",
          "name": "isActive",
          "type": "bool"
        },
        {
          "internalType": "bool",
          "name": "isFinalized",
          "type": "bool"
        },
        {
          "internalType": "uint256",
          "name": "voteCount",
          "type": "uint256"
        }
      ],
      "stateMutability": "view",
      "type": "function"
    },
    {
      "inputs": [],
      "name": "getResults",
      "outputs": [
        {
          "internalType": "uint256[]",
          "name": "candidateVotes",
          "type": "uint256[]"
        },
        {
          "internalType": "string[]",
          "name": "candidateNames",
          "type": "string[]"
        },
        {
          "internalType": "string[]",
          "name": "candidateParties",
          "type": "string[]"
        }
      ],
      "stateMutability": "view",
      "type": "function"
    },
    {
      "inputs": [
        {
          "internalType": "address",
          "name": "_voter",
          "type": "address"
        }
      ],
      "name": "getVoterStatus",
      "outputs": [
        {
          "internalType": "bool",
          "name": "isRegistered",
          "type": "bool"
        },
        {
          "internalType": "bool",
          "name": "voted",
          "type": "bool"
        }
      ],
      "stateMutability": "view",
      "type": "function"
    },
    {
      "inputs": [
        {
          "internalType": "address",
          "name": "",
          "type": "address"
        }
      ],
      "name": "hasVoted",
      "outputs": [
        {
          "internalType": "bool",
          "name": "",
          "type": "bool"
        }
      ],
      "stateMutability": "view",
      "type": "function"
    },
    {
      "inputs": [
        {
          "internalType": "address",
          "name": "_voter",
          "type": "address"
        }
      ],
      "name": "registerVoter",
      "outputs": [],
      "stateMutability": "nonpayable",
      "type": "function"
    },
    {
      "inputs": [],
      "name": "totalVotes",
      "outputs": [
        {
          "internalType": "uint256",
          "name": "",
          "type": "uint256"
        }
      ],
      "stateMutability": "view",
      "type": "function"
    },
    {
      "inputs": [
        {
          "internalType": "uint256",
          "name": "_candidateId",
          "type": "uint256"
        }
      ],
      "name": "vote",
      "outputs": [],
      "stateMutability": "nonpayable",
      "type": "function"
    },
    {
      "inputs": [
        {
          "internalType": "address",
          "name": "",
          "type": "address"
        }
      ],
      "name": "voters",
      "outputs": [
        {
          "internalType": "bool",
          "name": "",
          "type": "bool"
        }
      ],
      "stateMutability": "view",
      "type": "function"
    }
  ],
  "bytecode": "0x60806040523480156200001157600080fd5b5060405162002dfc38038062002dfc833981810160405281019062000037919062000348565b336000806101000a81548173ffffffffffffffffffffffffffffffffffffffff021916908373ffffffffffffffffffffffffffffffffffffffff1602179055506040518060c001604052808581526020018481526020018381526020018281526020016001151581526020016000151581525060016000820151816000019081620000c3919062000639565b506020820151816001019081620000db919062000639565b50604082015181600201556060820151816003015560808201518160040160006101000a81548160ff02191690831515021790555060a08201518160040160016101000a81548160ff0219169083151502179055509050507f3192025d62576bbf32bcba53281e3aeec990aa639a799f5e1abaa5fc0b654f99848383604051620001689392919062000783565b60405180910390a150505050620007c7565b6000604051905090565b600080fd5b600080fd5b600080fd5b600080fd5b6000601f19601f8301169050919050565b7f4e487b7100000000000000000000000000000000000000000000000000000000600052604160045260246000fd5b620001e38262000198565b810181811067ffffffffffffffff82111715620002055762000204620001a9565b5b80604052505050565b60006200021a6200017a565b9050620002288282620001d8565b919050565b600067ffffffffffffffff8211156200024b576200024a620001a9565b5b620002568262000198565b9050602081019050919050565b60005b838110156200028357808201518184015260208101905062000266565b60008484015250505050565b6000620002a6620002a0846200022d565b6200020e565b905082815260208101848484011115620002c557620002c462000193565b5b620002d284828562000263565b509392505050565b600082601f830112620002f257620002f16200018e565b5b8151620003048482602086016200028f565b91505092915050565b6000819050919050565b62000322816200030d565b81146200032e57600080fd5b50565b600081519050620003428162000317565b92915050565b6000806000806080858703121562000365576200036462000184565b5b600085015167ffffffffffffffff81111562000386576200038562000189565b5b6200039487828801620002da565b945050602085015167ffffffffffffffff811115620003b857620003b762000189565b5b620003c687828801620002da565b9350506040620003d98782880162000331565b9250506060620003ec8782880162000331565b91505092959194509250565b600081519050919050565b7f4e487b7100000000000000000000000000000000000000000000000000000000600052602260045260246000fd5b600060028204905060018216806200044b57607f821691505b60208210810362000461576200046062000403565b5b50919050565b60008190508160005260206000209050919050565b60006020601f8301049050919050565b600082821b905092915050565b600060088302620004cb7fffffffffffffffffffffffffffffffffffffffffffffffffffffffffffffffff826200048c565b620004d786836200048c565b95508019841693508086168417925050509392505050565b6000819050919050565b60006200051a620005146200050e846200030d565b620004ef565b6200030d565b9050919050565b6000819050919050565b6200053683620004f9565b6200054e620005458262000521565b84845462000499565b825550505050565b600090565b6200056562000556565b620005728184846200052b565b505050565b5b818110156200059a576200058e6000826200055b565b60018101905062000578565b5050565b601f821115620005e957620005b38162000467565b620005be846200047c565b81016020851015620005ce578190505b620005e6620005dd856200047c565b83018262000577565b50505b505050565b600082821c905092915050565b60006200060e60001984600802620005ee565b1980831691505092915050565b6000620006298383620005fb565b9150826002028217905092915050565b6200064482620003f8565b67ffffffffffffffff81111562000660576200065f620001a9565b5b6200066c825462000432565b620006798282856200059e565b600060209050601f831160018114620006b157600084156200069c578287015190505b620006a885826200061b565b86555062000718565b601f198416620006c18662000467565b60005b82811015620006eb57848901518255600182019150602085019450602081019050620006c4565b868310156200070b578489015162000707601f891682620005fb565b8355505b6001600288020188555050505b505050505050565b600082825260208201905092915050565b60006200073e82620003f8565b6200074a818562000720565b93506200075c81856020860162000263565b620007678162000198565b840191505092915050565b6200077d816200030d565b82525050565b600060608201905081810360008301526200079f818662000731565b9050620007b0602083018562000772565b620007bf604083018462000772565b949350505050565b61262580620007d76000396000f3fe608060405234801561001057600080fd5b50600436106100f55760003560e01c806338db6dd31161009757806378e3ef201161006657806378e3ef201461026d57806386852dca1461029e578063a3ec138d146102c2578063f851a440146102f2576100f5565b806338db6dd3146102045780634717f97c146102205780634b1d3ede146102405780636cc6837e14610263576100f5565b806326541b56116100d357806326541b561461016457806330a56347146101805780633477ee2e1461019e57806335b8e820146101d1576100f5565b80630121b93f146100fa57806309eef43e146101165780630d15fd7714610146575b600080fd5b610114600480360381019061010f9190611605565b610310565b005b610130600480360381019061012b9190611690565b610689565b60405161013d91906116d8565b60405180910390f35b61014e6106a9565b60405161015b9190611702565b60405180910390f35b61017e60048036038101906101799190611863565b6106af565b005b6101886108a3565b6040516101959190611702565b60405180910390f35b6101b860048036038101906101b39190611605565b6108b0565b6040516101c8949392919061195a565b60405180910390f35b6101eb60048036038101906101e69190611605565b610a0d565b6040516101fb949392919061195a565b60405180910390f35b61021e60048036038101906102199190611690565b610bf8565b005b610228610d6e565b60405161023793929190611b77565b60405180910390f35b61024861106a565b60405161025a96959493929190611bc3565b60405180910390f35b61026b6111be565b005b61028760048036038101906102829190611690565b611359565b604051610295929190611c32565b60405180910390f35b6102a66113ff565b6040516102b99796959493929190611c5b565b60405180910390f35b6102dc60048036038101906102d79190611690565b611577565b6040516102e991906116d8565b60405180910390f35b6102fa611597565b6040516103079190611ce7565b60405180910390f35b600160020154421015801561032a57506001600301544211155b610369576040517f08c379a000000000000000000000000000000000000000000000000000000000815260040161036090611d4e565b60405180910390fd5b600160040160009054906101000a900460ff166103bb576040517f08c379a00000000000000000000000000000000000000000000000000000000081526004016103b290611d4e565b60405180910390fd5b600660003373ffffffffffffffffffffffffffffffffffffffff1673ffffffffffffffffffffffffffffffffffffffff16815260200190815260200160002060009054906101000a900460ff16610447576040517f08c379a000000000000000000000000000000000000000000000000000000000815260040161043e90611dba565b60405180910390fd5b600760003373ffffffffffffffffffffffffffffffffffffffff1673ffffffffffffffffffffffffffffffffffffffff16815260200190815260200160002060009054906101000a900460ff16156104d4576040517f08c379a00000000000000000000000000000000000000000000000000000000081526004016104cb90611e26565b60405180910390fd5b600880549050811061051b576040517f08c379a000000000000000000000000000000000000000000000000000000000815260040161051290611e92565b60405180910390fd5b6008818154811061052f5761052e611eb2565b5b906000526020600020906004020160030160009054906101000a900460ff1661058d576040517f08c379a000000000000000000000000000000000000000000000000000000000815260040161058490611f2d565b60405180910390fd5b6001600760003373ffffffffffffffffffffffffffffffffffffffff1673ffffffffffffffffffffffffffffffffffffffff16815260200190815260200160002060006101000a81548160ff021916908315150217905550600881815481106105f9576105f8611eb2565b5b9060005260206000209060040201600201600081548092919061061b90611f7c565b91905055506009600081548092919061063390611f7c565b91905055503373ffffffffffffffffffffffffffffffffffffffff167fa36cc2bebb74db33e9f88110a07ef56e1b31b24b4c4f51b54b1664266e29f45b8260405161067e9190611702565b60405180910390a250565b60076020528060005260406000206000915054906101000a900460ff1681565b60095481565b60008054906101000a900473ffffffffffffffffffffffffffffffffffffffff1673ffffffffffffffffffffffffffffffffffffffff163373ffffffffffffffffffffffffffffffffffffffff161461073d576040517f08c379a000000000000000000000000000000000000000000000000000000000815260040161073490612036565b60405180910390fd5b600160040160009054906101000a900460ff16801561076c5750600160040160019054906101000a900460ff16155b6107ab576040517f08c379a00000000000000000000000000000000000000000000000000000000081526004016107a2906120c8565b60405180910390fd5b6008604051806080016040528084815260200183815260200160008152602001600115158152509080600181540180825580915050600190039060005260206000209060040201600090919091909150600082015181600001908161081091906122f4565b50602082015181600101908161082691906122f4565b506040820151816002015560608201518160030160006101000a81548160ff02191690831515021790555050507fe64f834082661dd9ed89427b87edb6270fd6dad17198b0938f0edd058914c87f600160088054905061088691906123c6565b8383604051610897939291906123fa565b60405180910390a15050565b6000600880549050905090565b600881815481106108c057600080fd5b90600052602060002090600402016000915090508060000180546108e390612117565b80601f016020809104026020016040519081016040528092919081815260200182805461090f90612117565b801561095c5780601f106109315761010080835404028352916020019161095c565b820191906000526020600020905b81548152906001019060200180831161093f57829003601f168201915b50505050509080600101805461097190612117565b80601f016020809104026020016040519081016040528092919081815260200182805461099d90612117565b80156109ea5780601f106109bf576101008083540402835291602001916109ea565b820191906000526020600020905b8154815290600101906020018083116109cd57829003601f168201915b5050505050908060020154908060030160009054906101000a900460ff16905084565b6060806000806008805490508510610a5a576040517f08c379a0000000000000000000000000000000000000000000000000000000008152600401610a519061248b565b60405180910390fd5b600060088681548110610a7057610a6f611eb2565b5b9060005260206000209060040201604051806080016040529081600082018054610a9990612117565b80601f0160208091040260200160405190810160405280929190818152602001828054610ac590612117565b8015610b125780601f10610ae757610100808354040283529160200191610b12565b820191906000526020600020905b815481529060010190602001808311610af557829003601f168201915b50505050508152602001600182018054610b2b90612117565b80601f0160208091040260200160405190810160405280929190818152602001828054610b5790612117565b8015610ba45780601f10610b7957610100808354040283529160200191610ba4565b820191906000526020600020905b815481529060010190602001808311610b8757829003601f168201915b50505050508152602001600282015481526020016003820160009054906101000a900460ff161515151581525050905080600001518160200151826040015183606001519450945094509450509193509193565b60008054906101000a900473ffffffffffffffffffffffffffffffffffffffff1673ffffffffffffffffffffffffffffffffffffffff163373ffffffffffffffffffffffffffffffffffffffff1614610c86576040517f08c379a0000000000000000000000000000000000000000000000000000000008152600401610c7d90612036565b60405180910390fd5b600660008273ffffffffffffffffffffffffffffffffffffffff1673ffffffffffffffffffffffffffffffffffffffff16815260200190815260200160002060009054906101000a900460ff1615610d13576040517f08c379a0000000000000000000000000000000000000000000000000000000008152600401610d0a906124f7565b60405180910390fd5b6001600660008373ffffffffffffffffffffffffffffffffffffffff1673ffffffffffffffffffffffffffffffffffffffff16815260200190815260200160002060006101000a81548160ff02191690831515021790555050565b6060806060600060088054905090508067ffffffffffffffff811115610d9757610d96611738565b5b604051908082528060200260200182016040528015610dc55781602001602082028036833780820191505090505b5093508067ffffffffffffffff811115610de257610de1611738565b5b604051908082528060200260200182016040528015610e1557816020015b6060815260200190600190039081610e005790505b5092508067ffffffffffffffff811115610e3257610e31611738565b5b604051908082528060200260200182016040528015610e6557816020015b6060815260200190600190039081610e505790505b50915060005b818110156110635760088181548110610e8757610e86611eb2565b5b906000526020600020906004020160020154858281518110610eac57610eab611eb2565b5b60200260200101818152505060088181548110610ecc57610ecb611eb2565b5b90600052602060002090600402016000018054610ee890612117565b80601f0160208091040260200160405190810160405280929190818152602001828054610f1490612117565b8015610f615780601f10610f3657610100808354040283529160200191610f61565b820191906000526020600020905b815481529060010190602001808311610f4457829003601f168201915b5050505050848281518110610f7957610f78611eb2565b5b602002602001018190525060088181548110610f9857610f97611eb2565b5b90600052602060002090600402016001018054610fb490612117565b80601f0160208091040260200160405190810160405280929190818152602001828054610fe090612117565b801561102d5780601f106110025761010080835404028352916020019161102d565b820191906000526020600020905b81548152906001019060200180831161101057829003601f168201915b505050505083828151811061104557611044611eb2565b5b6020026020010181905250808061105b90611f7c565b915050610e6b565b5050909192565b600180600001805461107b90612117565b80601f01602080910402602001604051908101604052809291908181526020018280546110a790612117565b80156110f45780601f106110c9576101008083540402835291602001916110f4565b820191906000526020600020905b8154815290600101906020018083116110d757829003601f168201915b50505050509080600101805461110990612117565b80601f016020809104026020016040519081016040528092919081815260200182805461113590612117565b80156111825780601f1061115757610100808354040283529160200191611182565b820191906000526020600020905b81548152906001019060200180831161116557829003601f168201915b5050505050908060020154908060030154908060040160009054906101000a900460ff16908060040160019054906101000a900460ff16905086565b60008054906101000a900473ffffffffffffffffffffffffffffffffffffffff1673ffffffffffffffffffffffffffffffffffffffff163373ffffffffffffffffffffffffffffffffffffffff161461124c576040517f08c379a000000000000000000000000000000000000000000000000000000000815260040161124390612036565b60405180910390fd5b60016003015442118061126f5750600160040160009054906101000a900460ff16155b6112ae576040517f08c379a00000000000000000000000000000000000000000000000000000000081526004016112a590612563565b60405180910390fd5b600160040160019054906101000a900460ff1615611301576040517f08c379a00000000000000000000000000000000000000000000000000000000081526004016112f8906125cf565b60405180910390fd5b60018060040160016101000a81548160ff0219169083151502179055507f91dd42272d56833844c782309d408c2ce0612df469d35fcbf2bef1a8e21e4f9560095460405161134f9190611702565b60405180910390a1565b600080600660008473ffffffffffffffffffffffffffffffffffffffff1673ffffffffffffffffffffffffffffffffffffffff16815260200190815260200160002060009054906101000a900460ff16600760008573ffffffffffffffffffffffffffffffffffffffff1673ffffffffffffffffffffffffffffffffffffffff16815260200190815260200160002060009054906101000a900460ff1691509150915091565b6060806000806000806000600160000160018001600160020154600160030154600160040160009054906101000a900460ff16600160040160019054906101000a900460ff1660095486805461145490612117565b80601f016020809104026020016040519081016040528092919081815260200182805461148090612117565b80156114cd5780601f106114a2576101008083540402835291602001916114cd565b820191906000526020600020905b8154815290600101906020018083116114b057829003601f168201915b505050505096508580546114e090612117565b80601f016020809104026020016040519081016040528092919081815260200182805461150c90612117565b80156115595780601f1061152e57610100808354040283529160200191611559565b820191906000526020600020905b81548152906001019060200180831161153c57829003601f168201915b50505050509550965096509650965096509650965090919293949596565b60066020528060005260406000206000915054906101000a900460ff1681565b60008054906101000a900473ffffffffffffffffffffffffffffffffffffffff1681565b6000604051905090565b600080fd5b600080fd5b6000819050919050565b6115e2816115cf565b81146115ed57600080fd5b50565b6000813590506115ff816115d9565b92915050565b60006020828403121561161b5761161a6115c5565b5b6000611629848285016115f0565b91505092915050565b600073ffffffffffffffffffffffffffffffffffffffff82169050919050565b600061165d82611632565b9050919050565b61166d81611652565b811461167857600080fd5b50565b60008135905061168a81611664565b92915050565b6000602082840312156116a6576116a56115c5565b5b60006116b48482850161167b565b91505092915050565b60008115159050919050565b6116d2816116bd565b82525050565b60006020820190506116ed60008301846116c9565b92915050565b6116fc816115cf565b82525050565b600060208201905061171760008301846116f3565b92915050565b600080fd5b600080fd5b6000601f19601f8301169050919050565b7f4e487b7100000000000000000000000000000000000000000000000000000000600052604160045260246000fd5b61177082611727565b810181811067ffffffffffffffff8211171561178f5761178e611738565b5b80604052505050565b60006117a26115bb565b90506117ae8282611767565b919050565b600067ffffffffffffffff8211156117ce576117cd611738565b5b6117d782611727565b9050602081019050919050565b82818337600083830152505050565b6000611806611801846117b3565b611798565b90508281526020810184848401111561182257611821611722565b5b61182d8482856117e4565b509392505050565b600082601f83011261184a5761184961171d565b5b813561185a8482602086016117f3565b91505092915050565b6000806040838503121561187a576118796115c5565b5b600083013567ffffffffffffffff811115611898576118976115ca565b5b6118a485828601611835565b925050602083013567ffffffffffffffff8111156118c5576118c46115ca565b5b6118d185828601611835565b9150509250929050565b600081519050919050565b600082825260208201905092915050565b60005b838110156119155780820151818401526020810190506118fa565b60008484015250505050565b600061192c826118db565b61193681856118e6565b93506119468185602086016118f7565b61194f81611727565b840191505092915050565b600060808201905081810360008301526119748187611921565b905081810360208301526119888186611921565b905061199760408301856116f3565b6119a460608301846116c9565b95945050505050565b600081519050919050565b600082825260208201905092915050565b6000819050602082019050919050565b6119e2816115cf565b82525050565b60006119f483836119d9565b60208301905092915050565b6000602082019050919050565b6000611a18826119ad565b611a2281856119b8565b9350611a2d836119c9565b8060005b83811015611a5e578151611a4588826119e8565b9750611a5083611a00565b925050600181019050611a31565b5085935050505092915050565b600081519050919050565b600082825260208201905092915050565b6000819050602082019050919050565b600082825260208201905092915050565b6000611ab3826118db565b611abd8185611a97565b9350611acd8185602086016118f7565b611ad681611727565b840191505092915050565b6000611aed8383611aa8565b905092915050565b6000602082019050919050565b6000611b0d82611a6b565b611b178185611a76565b935083602082028501611b2985611a87565b8060005b85811015611b655784840389528151611b468582611ae1565b9450611b5183611af5565b925060208a01995050600181019050611b2d565b50829750879550505050505092915050565b60006060820190508181036000830152611b918186611a0d565b90508181036020830152611ba58185611b02565b90508181036040830152611bb98184611b02565b9050949350505050565b600060c0820190508181036000830152611bdd8189611921565b90508181036020830152611bf18188611921565b9050611c0060408301876116f3565b611c0d60608301866116f3565b611c1a60808301856116c9565b611c2760a08301846116c9565b979650505050505050565b6000604082019050611c4760008301856116c9565b611c5460208301846116c9565b9392505050565b600060e0820190508181036000830152611c75818a611921565b90508181036020830152611c898189611921565b9050611c9860408301886116f3565b611ca560608301876116f3565b611cb260808301866116c9565b611cbf60a08301856116c9565b611ccc60c08301846116f3565b98975050505050505050565b611ce181611652565b82525050565b6000602082019050611cfc6000830184611cd8565b92915050565b7f456c656374696f6e206973206e6f742061637469766500000000000000000000600082015250565b6000611d386016836118e6565b9150611d4382611d02565b602082019050919050565b60006020820190508181036000830152611d6781611d2b565b9050919050565b7f566f746572206e6f742072656769737465726564000000000000000000000000600082015250565b6000611da46014836118e6565b9150611daf82611d6e565b602082019050919050565b60006020820190508181036000830152611dd381611d97565b9050919050565b7f416c726561647920766f74656400000000000000000000000000000000000000600082015250565b6000611e10600d836118e6565b9150611e1b82611dda565b602082019050919050565b60006020820190508181036000830152611e3f81611e03565b9050919050565b7f496e76616c69642063616e646964617465000000000000000000000000000000600082015250565b6000611e7c6011836118e6565b9150611e8782611e46565b602082019050919050565b60006020820190508181036000830152611eab81611e6f565b9050919050565b7f4e487b7100000000000000000000000000000000000000000000000000000000600052603260045260246000fd5b7f43616e646964617465206973206e6f7420616374697665000000000000000000600082015250565b6000611f176017836118e6565b9150611f2282611ee1565b602082019050919050565b60006020820190508181036000830152611f4681611f0a565b9050919050565b7f4e487b7100000000000000000000000000000000000000000000000000000000600052601160045260246000fd5b6000611f87826115cf565b91507fffffffffffffffffffffffffffffffffffffffffffffffffffffffffffffffff8203611fb957611fb8611f4d565b5b600182019050919050565b7f4f6e6c792061646d696e2063616e20706572666f726d2074686973206163746960008201527f6f6e000000000000000000000000000000000000000000000000000000000000602082015250565b60006120206022836118e6565b915061202b82611fc4565b604082019050919050565b6000602082019050818103600083015261204f81612013565b9050919050565b7f456c656374696f6e206973206e6f7420616374697665206f7220616c7265616460008201527f792066696e616c697a6564000000000000000000000000000000000000000000602082015250565b60006120b2602b836118e6565b91506120bd82612056565b604082019050919050565b600060208201905081810360008301526120e1816120a5565b9050919050565b7f4e487b7100000000000000000000000000000000000000000000000000000000600052602260045260246000fd5b6000600282049050600182168061212f57607f821691505b602082108103612142576121416120e8565b5b50919050565b60008190508160005260206000209050919050565b60006020601f8301049050919050565b600082821b905092915050565b6000600883026121aa7fffffffffffffffffffffffffffffffffffffffffffffffffffffffffffffffff8261216d565b6121b4868361216d565b95508019841693508086168417925050509392505050565b6000819050919050565b60006121f16121ec6121e7846115cf565b6121cc565b6115cf565b9050919050565b6000819050919050565b61220b836121d6565b61221f612217826121f8565b84845461217a565b825550505050565b600090565b612234612227565b61223f818484612202565b505050565b5b818110156122635761225860008261222c565b600181019050612245565b5050565b601f8211156122a85761227981612148565b6122828461215d565b81016020851015612291578190505b6122a561229d8561215d565b830182612244565b50505b505050565b600082821c905092915050565b60006122cb600019846008026122ad565b1980831691505092915050565b60006122e483836122ba565b9150826002028217905092915050565b6122fd826118db565b67ffffffffffffffff81111561231657612315611738565b5b6123208254612117565b61232b828285612267565b600060209050601f83116001811461235e576000841561234c578287015190505b61235685826122d8565b8655506123be565b601f19841661236c86612148565b60005b828110156123945784890151825560018201915060208501945060208101905061236f565b868310156123b157848901516123ad601f8916826122ba565b8355505b6001600288020188555050505b505050505050565b60006123d1826115cf565b91506123dc836115cf565b92508282039050818111156123f4576123f3611f4d565b5b92915050565b600060608201905061240f60008301866116f3565b81810360208301526124218185611921565b905081810360408301526124358184611921565b9050949350505050565b7f496e76616c69642063616e646964617465204944000000000000000000000000600082015250565b60006124756014836118e6565b91506124808261243f565b602082019050919050565b600060208201905081810360008301526124a481612468565b9050919050565b7f566f74657220616c726561647920726567697374657265640000000000000000600082015250565b60006124e16018836118e6565b91506124ec826124ab565b602082019050919050565b60006020820190508181036000830152612510816124d4565b9050919050565b7f456c656374696f6e206973207374696c6c206163746976650000000000000000600082015250565b600061254d6018836118e6565b915061255882612517565b602082019050919050565b6000602082019050818103600083015261257c81612540565b9050919050565b7f456c656374696f6e20616c72656164792066696e616c697a6564000000000000600082015250565b60006125b9601a836118e6565b91506125c482612583565b602082019050919050565b600060208201905081810360008301526125e8816125ac565b905091905056fea2646970667358221220fb9b7e2fbaf858d88ee5cf51419bb962c5d470552f654cbb895b6647bb3a9c6e64736f6c63430008140033",
  "linkReferences": {},
  "deployedLinkReferences": {}
}